{
  "_format": "hh-sol-artifact-1",
  "contractName": "Mommom",
  "sourceName": "contracts/Mommom.sol",
  "abi": [
    {
      "inputs": [],
      "stateMutability": "nonpayable",
      "type": "constructor"
    },
    {
      "anonymous": false,
      "inputs": [
        {
          "indexed": true,
          "internalType": "address",
          "name": "owner",
          "type": "address"
        },
        {
          "indexed": true,
          "internalType": "address",
          "name": "approved",
          "type": "address"
        },
        {
          "indexed": true,
          "internalType": "uint256",
          "name": "tokenId",
          "type": "uint256"
        }
      ],
      "name": "Approval",
      "type": "event"
    },
    {
      "anonymous": false,
      "inputs": [
        {
          "indexed": true,
          "internalType": "address",
          "name": "owner",
          "type": "address"
        },
        {
          "indexed": true,
          "internalType": "address",
          "name": "operator",
          "type": "address"
        },
        {
          "indexed": false,
          "internalType": "bool",
          "name": "approved",
          "type": "bool"
        }
      ],
      "name": "ApprovalForAll",
      "type": "event"
    },
    {
      "anonymous": false,
      "inputs": [
        {
          "indexed": true,
          "internalType": "address",
          "name": "from",
          "type": "address"
        },
        {
          "indexed": true,
          "internalType": "address",
          "name": "to",
          "type": "address"
        },
        {
          "indexed": true,
          "internalType": "uint256",
          "name": "tokenId",
          "type": "uint256"
        }
      ],
      "name": "Transfer",
      "type": "event"
    },
    {
      "inputs": [
        {
          "internalType": "address",
          "name": "to",
          "type": "address"
        },
        {
          "internalType": "uint256",
          "name": "tokenId",
          "type": "uint256"
        }
      ],
      "name": "approve",
      "outputs": [],
      "stateMutability": "nonpayable",
      "type": "function"
    },
    {
      "inputs": [
        {
          "internalType": "address",
          "name": "owner",
          "type": "address"
        }
      ],
      "name": "balanceOf",
      "outputs": [
        {
          "internalType": "uint256",
          "name": "",
          "type": "uint256"
        }
      ],
      "stateMutability": "view",
      "type": "function"
    },
    {
      "inputs": [
        {
          "internalType": "address",
          "name": "owner",
          "type": "address"
        },
        {
          "internalType": "string",
          "name": "foodID",
          "type": "string"
        }
      ],
      "name": "buy",
      "outputs": [
        {
          "internalType": "uint256",
          "name": "",
          "type": "uint256"
        }
      ],
      "stateMutability": "nonpayable",
      "type": "function"
    },
    {
      "inputs": [
        {
          "internalType": "uint256",
          "name": "tokenId",
          "type": "uint256"
        }
      ],
      "name": "getApproved",
      "outputs": [
        {
          "internalType": "address",
          "name": "",
          "type": "address"
        }
      ],
      "stateMutability": "view",
      "type": "function"
    },
    {
      "inputs": [
        {
          "internalType": "address",
          "name": "owner",
          "type": "address"
        },
        {
          "internalType": "address",
          "name": "receiver",
          "type": "address"
        },
        {
          "internalType": "uint256",
          "name": "tokenID",
          "type": "uint256"
        }
      ],
      "name": "gift",
      "outputs": [],
      "stateMutability": "nonpayable",
      "type": "function"
    },
    {
      "inputs": [
        {
          "internalType": "address",
          "name": "owner",
          "type": "address"
        },
        {
          "internalType": "address",
          "name": "operator",
          "type": "address"
        }
      ],
      "name": "isApprovedForAll",
      "outputs": [
        {
          "internalType": "bool",
          "name": "",
          "type": "bool"
        }
      ],
      "stateMutability": "view",
      "type": "function"
    },
    {
      "inputs": [],
      "name": "name",
      "outputs": [
        {
          "internalType": "string",
          "name": "",
          "type": "string"
        }
      ],
      "stateMutability": "view",
      "type": "function"
    },
    {
      "inputs": [
        {
          "internalType": "uint256",
          "name": "tokenId",
          "type": "uint256"
        }
      ],
      "name": "ownerOf",
      "outputs": [
        {
          "internalType": "address",
          "name": "",
          "type": "address"
        }
      ],
      "stateMutability": "view",
      "type": "function"
    },
    {
      "inputs": [
        {
          "internalType": "address",
          "name": "owner",
          "type": "address"
        },
        {
          "internalType": "uint256",
          "name": "tokenID",
          "type": "uint256"
        }
      ],
      "name": "redeem",
      "outputs": [],
      "stateMutability": "nonpayable",
      "type": "function"
    },
    {
      "inputs": [
        {
          "internalType": "address",
          "name": "from",
          "type": "address"
        },
        {
          "internalType": "address",
          "name": "to",
          "type": "address"
        },
        {
          "internalType": "uint256",
          "name": "tokenId",
          "type": "uint256"
        }
      ],
      "name": "safeTransferFrom",
      "outputs": [],
      "stateMutability": "nonpayable",
      "type": "function"
    },
    {
      "inputs": [
        {
          "internalType": "address",
          "name": "from",
          "type": "address"
        },
        {
          "internalType": "address",
          "name": "to",
          "type": "address"
        },
        {
          "internalType": "uint256",
          "name": "tokenId",
          "type": "uint256"
        },
        {
          "internalType": "bytes",
          "name": "_data",
          "type": "bytes"
        }
      ],
      "name": "safeTransferFrom",
      "outputs": [],
      "stateMutability": "nonpayable",
      "type": "function"
    },
    {
      "inputs": [
        {
          "internalType": "address",
          "name": "operator",
          "type": "address"
        },
        {
          "internalType": "bool",
          "name": "approved",
          "type": "bool"
        }
      ],
      "name": "setApprovalForAll",
      "outputs": [],
      "stateMutability": "nonpayable",
      "type": "function"
    },
    {
      "inputs": [
        {
          "internalType": "bytes4",
          "name": "interfaceId",
          "type": "bytes4"
        }
      ],
      "name": "supportsInterface",
      "outputs": [
        {
          "internalType": "bool",
          "name": "",
          "type": "bool"
        }
      ],
      "stateMutability": "view",
      "type": "function"
    },
    {
      "inputs": [],
      "name": "symbol",
      "outputs": [
        {
          "internalType": "string",
          "name": "",
          "type": "string"
        }
      ],
      "stateMutability": "view",
      "type": "function"
    },
    {
      "inputs": [
        {
          "internalType": "uint256",
          "name": "index",
          "type": "uint256"
        }
      ],
      "name": "tokenByIndex",
      "outputs": [
        {
          "internalType": "uint256",
          "name": "",
          "type": "uint256"
        }
      ],
      "stateMutability": "view",
      "type": "function"
    },
    {
      "inputs": [
        {
          "internalType": "address",
          "name": "owner",
          "type": "address"
        },
        {
          "internalType": "uint256",
          "name": "index",
          "type": "uint256"
        }
      ],
      "name": "tokenOfOwnerByIndex",
      "outputs": [
        {
          "internalType": "uint256",
          "name": "",
          "type": "uint256"
        }
      ],
      "stateMutability": "view",
      "type": "function"
    },
    {
      "inputs": [
        {
          "internalType": "uint256",
          "name": "tokenId",
          "type": "uint256"
        }
      ],
      "name": "tokenURI",
      "outputs": [
        {
          "internalType": "string",
          "name": "",
          "type": "string"
        }
      ],
      "stateMutability": "view",
      "type": "function"
    },
    {
      "inputs": [],
      "name": "totalSupply",
      "outputs": [
        {
          "internalType": "uint256",
          "name": "",
          "type": "uint256"
        }
      ],
      "stateMutability": "view",
      "type": "function"
    },
    {
      "inputs": [
        {
          "internalType": "address",
          "name": "from",
          "type": "address"
        },
        {
          "internalType": "address",
          "name": "to",
          "type": "address"
        },
        {
          "internalType": "uint256",
          "name": "tokenId",
          "type": "uint256"
        }
      ],
      "name": "transferFrom",
      "outputs": [],
      "stateMutability": "nonpayable",
      "type": "function"
    }
  ],
  "bytecode": "0x60806040523480156200001157600080fd5b506040518060400160405280600681526020017f4d6f6d6d6f6d00000000000000000000000000000000000000000000000000008152506040518060400160405280600681526020017f4d4f4d4d4f4d0000000000000000000000000000000000000000000000000000815250816000908051906020019062000096929190620000b8565b508060019080519060200190620000af929190620000b8565b505050620001cd565b828054620000c69062000168565b90600052602060002090601f016020900481019282620000ea576000855562000136565b82601f106200010557805160ff191683800117855562000136565b8280016001018555821562000136579182015b828111156200013557825182559160200191906001019062000118565b5b50905062000145919062000149565b5090565b5b80821115620001645760008160009055506001016200014a565b5090565b600060028204905060018216806200018157607f821691505b602082108114156200019857620001976200019e565b5b50919050565b7f4e487b7100000000000000000000000000000000000000000000000000000000600052602260045260246000fd5b6136f280620001dd6000396000f3fe608060405234801561001057600080fd5b50600436106101215760003560e01c80634f6ccce7116100ad57806395dbee2d1161007157806395dbee2d14610340578063a22cb4651461035c578063b88d4fde14610378578063c87b56dd14610394578063e985e9c5146103c457610121565b80634f6ccce7146102625780636352211e1461029257806370a08231146102c257806383451838146102f257806395d89b411461032257610121565b806318160ddd116100f457806318160ddd146101c05780631e9a6950146101de57806323b872dd146101fa5780632f745c591461021657806342842e0e1461024657610121565b806301ffc9a71461012657806306fdde0314610156578063081812fc14610174578063095ea7b3146101a4575b600080fd5b610140600480360381019061013b91906125e9565b6103f4565b60405161014d9190612a58565b60405180910390f35b61015e610406565b60405161016b9190612a73565b60405180910390f35b61018e6004803603810190610189919061263b565b610498565b60405161019b91906129f1565b60405180910390f35b6101be60048036038101906101b991906125ad565b61051d565b005b6101c8610635565b6040516101d59190612cf5565b60405180910390f35b6101f860048036038101906101f391906125ad565b610642565b005b610214600480360381019061020f9190612453565b610698565b005b610230600480360381019061022b91906125ad565b6106f8565b60405161023d9190612cf5565b60405180910390f35b610260600480360381019061025b9190612453565b61079d565b005b61027c6004803603810190610277919061263b565b6107bd565b6040516102899190612cf5565b60405180910390f35b6102ac60048036038101906102a7919061263b565b610854565b6040516102b991906129f1565b60405180910390f35b6102dc60048036038101906102d791906123ee565b610906565b6040516102e99190612cf5565b60405180910390f35b61030c60048036038101906103079190612559565b6109be565b6040516103199190612cf5565b60405180910390f35b61032a6109f5565b6040516103379190612a73565b60405180910390f35b61035a60048036038101906103559190612453565b610a87565b005b6103766004803603810190610371919061251d565b610ae0565b005b610392600480360381019061038d91906124a2565b610af6565b005b6103ae60048036038101906103a9919061263b565b610b58565b6040516103bb9190612a73565b60405180910390f35b6103de60048036038101906103d99190612417565b610b6a565b6040516103eb9190612a58565b60405180910390f35b60006103ff82610bfe565b9050919050565b60606000805461041590612f4b565b80601f016020809104026020016040519081016040528092919081815260200182805461044190612f4b565b801561048e5780601f106104635761010080835404028352916020019161048e565b820191906000526020600020905b81548152906001019060200180831161047157829003601f168201915b5050505050905090565b60006104a382610c78565b6104e2576040517f08c379a00000000000000000000000000000000000000000000000000000000081526004016104d990612c15565b60405180910390fd5b6004600083815260200190815260200160002060009054906101000a900473ffffffffffffffffffffffffffffffffffffffff169050919050565b600061052882610854565b90508073ffffffffffffffffffffffffffffffffffffffff168373ffffffffffffffffffffffffffffffffffffffff161415610599576040517f08c379a000000000000000000000000000000000000000000000000000000000815260040161059090612c75565b60405180910390fd5b8073ffffffffffffffffffffffffffffffffffffffff166105b8610ce4565b73ffffffffffffffffffffffffffffffffffffffff1614806105e757506105e6816105e1610ce4565b610b6a565b5b610626576040517f08c379a000000000000000000000000000000000000000000000000000000000815260040161061d90612b55565b60405180910390fd5b6106308383610cec565b505050565b6000600980549050905090565b61064c8282610da5565b61068b576040517f08c379a000000000000000000000000000000000000000000000000000000000815260040161068290612cd5565b60405180910390fd5b61069481610e83565b5050565b6106a96106a3610ce4565b82610da5565b6106e8576040517f08c379a00000000000000000000000000000000000000000000000000000000081526004016106df90612c95565b60405180910390fd5b6106f3838383610e8f565b505050565b600061070383610906565b8210610744576040517f08c379a000000000000000000000000000000000000000000000000000000000815260040161073b90612a95565b60405180910390fd5b600760008473ffffffffffffffffffffffffffffffffffffffff1673ffffffffffffffffffffffffffffffffffffffff168152602001908152602001600020600083815260200190815260200160002054905092915050565b6107b883838360405180602001604052806000815250610af6565b505050565b60006107c7610635565b8210610808576040517f08c379a00000000000000000000000000000000000000000000000000000000081526004016107ff90612cb5565b60405180910390fd5b60098281548110610842577f4e487b7100000000000000000000000000000000000000000000000000000000600052603260045260246000fd5b90600052602060002001549050919050565b6000806002600084815260200190815260200160002060009054906101000a900473ffffffffffffffffffffffffffffffffffffffff169050600073ffffffffffffffffffffffffffffffffffffffff168173ffffffffffffffffffffffffffffffffffffffff1614156108fd576040517f08c379a00000000000000000000000000000000000000000000000000000000081526004016108f490612b95565b60405180910390fd5b80915050919050565b60008073ffffffffffffffffffffffffffffffffffffffff168273ffffffffffffffffffffffffffffffffffffffff161415610977576040517f08c379a000000000000000000000000000000000000000000000000000000000815260040161096e90612b75565b60405180910390fd5b600360008373ffffffffffffffffffffffffffffffffffffffff1673ffffffffffffffffffffffffffffffffffffffff168152602001908152602001600020549050919050565b6000806109cb600b6110eb565b90506109d7600b6110f9565b6109e1848261110f565b6109eb81846112dd565b8091505092915050565b606060018054610a0490612f4b565b80601f0160208091040260200160405190810160405280929190818152602001828054610a3090612f4b565b8015610a7d5780601f10610a5257610100808354040283529160200191610a7d565b820191906000526020600020905b815481529060010190602001808311610a6057829003601f168201915b5050505050905090565b610a918382610da5565b610ad0576040517f08c379a0000000000000000000000000000000000000000000000000000000008152600401610ac790612cd5565b60405180910390fd5b610adb838383610e8f565b505050565b610af2610aeb610ce4565b8383611351565b5050565b610b07610b01610ce4565b83610da5565b610b46576040517f08c379a0000000000000000000000000000000000000000000000000000000008152600401610b3d90612c95565b60405180910390fd5b610b52848484846114be565b50505050565b6060610b638261151a565b9050919050565b6000600560008473ffffffffffffffffffffffffffffffffffffffff1673ffffffffffffffffffffffffffffffffffffffff16815260200190815260200160002060008373ffffffffffffffffffffffffffffffffffffffff1673ffffffffffffffffffffffffffffffffffffffff16815260200190815260200160002060009054906101000a900460ff16905092915050565b60007f780e9d63000000000000000000000000000000000000000000000000000000007bffffffffffffffffffffffffffffffffffffffffffffffffffffffff1916827bffffffffffffffffffffffffffffffffffffffffffffffffffffffff19161480610c715750610c708261166c565b5b9050919050565b60008073ffffffffffffffffffffffffffffffffffffffff166002600084815260200190815260200160002060009054906101000a900473ffffffffffffffffffffffffffffffffffffffff1673ffffffffffffffffffffffffffffffffffffffff1614159050919050565b600033905090565b816004600083815260200190815260200160002060006101000a81548173ffffffffffffffffffffffffffffffffffffffff021916908373ffffffffffffffffffffffffffffffffffffffff160217905550808273ffffffffffffffffffffffffffffffffffffffff16610d5f83610854565b73ffffffffffffffffffffffffffffffffffffffff167f8c5be1e5ebec7d5bd14f71427d1e84f3dd0314c0f7b2291e5b200ac8c7c3b92560405160405180910390a45050565b6000610db082610c78565b610def576040517f08c379a0000000000000000000000000000000000000000000000000000000008152600401610de690612b35565b60405180910390fd5b6000610dfa83610854565b90508073ffffffffffffffffffffffffffffffffffffffff168473ffffffffffffffffffffffffffffffffffffffff161480610e6957508373ffffffffffffffffffffffffffffffffffffffff16610e5184610498565b73ffffffffffffffffffffffffffffffffffffffff16145b80610e7a5750610e798185610b6a565b5b91505092915050565b610e8c8161174e565b50565b8273ffffffffffffffffffffffffffffffffffffffff16610eaf82610854565b73ffffffffffffffffffffffffffffffffffffffff1614610f05576040517f08c379a0000000000000000000000000000000000000000000000000000000008152600401610efc90612c35565b60405180910390fd5b600073ffffffffffffffffffffffffffffffffffffffff168273ffffffffffffffffffffffffffffffffffffffff161415610f75576040517f08c379a0000000000000000000000000000000000000000000000000000000008152600401610f6c90612af5565b60405180910390fd5b610f808383836117a1565b610f8b600082610cec565b6001600360008573ffffffffffffffffffffffffffffffffffffffff1673ffffffffffffffffffffffffffffffffffffffff1681526020019081526020016000206000828254610fdb9190612e61565b925050819055506001600360008473ffffffffffffffffffffffffffffffffffffffff1673ffffffffffffffffffffffffffffffffffffffff16815260200190815260200160002060008282546110329190612dda565b92505081905550816002600083815260200190815260200160002060006101000a81548173ffffffffffffffffffffffffffffffffffffffff021916908373ffffffffffffffffffffffffffffffffffffffff160217905550808273ffffffffffffffffffffffffffffffffffffffff168473ffffffffffffffffffffffffffffffffffffffff167fddf252ad1be2c89b69c2b068fc378daa952ba7f163c4a11628f55a4df523b3ef60405160405180910390a4505050565b600081600001549050919050565b6001816000016000828254019250508190555050565b600073ffffffffffffffffffffffffffffffffffffffff168273ffffffffffffffffffffffffffffffffffffffff16141561117f576040517f08c379a000000000000000000000000000000000000000000000000000000000815260040161117690612bd5565b60405180910390fd5b61118881610c78565b156111c8576040517f08c379a00000000000000000000000000000000000000000000000000000000081526004016111bf90612ad5565b60405180910390fd5b6111d4600083836117a1565b6001600360008473ffffffffffffffffffffffffffffffffffffffff1673ffffffffffffffffffffffffffffffffffffffff16815260200190815260200160002060008282546112249190612dda565b92505081905550816002600083815260200190815260200160002060006101000a81548173ffffffffffffffffffffffffffffffffffffffff021916908373ffffffffffffffffffffffffffffffffffffffff160217905550808273ffffffffffffffffffffffffffffffffffffffff16600073ffffffffffffffffffffffffffffffffffffffff167fddf252ad1be2c89b69c2b068fc378daa952ba7f163c4a11628f55a4df523b3ef60405160405180910390a45050565b6112e682610c78565b611325576040517f08c379a000000000000000000000000000000000000000000000000000000000815260040161131c90612bb5565b60405180910390fd5b8060066000848152602001908152602001600020908051906020019061134c9291906121d2565b505050565b8173ffffffffffffffffffffffffffffffffffffffff168373ffffffffffffffffffffffffffffffffffffffff1614156113c0576040517f08c379a00000000000000000000000000000000000000000000000000000000081526004016113b790612b15565b60405180910390fd5b80600560008573ffffffffffffffffffffffffffffffffffffffff1673ffffffffffffffffffffffffffffffffffffffff16815260200190815260200160002060008473ffffffffffffffffffffffffffffffffffffffff1673ffffffffffffffffffffffffffffffffffffffff16815260200190815260200160002060006101000a81548160ff0219169083151502179055508173ffffffffffffffffffffffffffffffffffffffff168373ffffffffffffffffffffffffffffffffffffffff167f17307eab39ab6107e8899845ad3d59bd9653f200f220920489ca2b5937696c31836040516114b19190612a58565b60405180910390a3505050565b6114c9848484610e8f565b6114d5848484846117b1565b611514576040517f08c379a000000000000000000000000000000000000000000000000000000000815260040161150b90612ab5565b60405180910390fd5b50505050565b606061152582610c78565b611564576040517f08c379a000000000000000000000000000000000000000000000000000000000815260040161155b90612bf5565b60405180910390fd5b600060066000848152602001908152602001600020805461158490612f4b565b80601f01602080910402602001604051908101604052809291908181526020018280546115b090612f4b565b80156115fd5780601f106115d2576101008083540402835291602001916115fd565b820191906000526020600020905b8154815290600101906020018083116115e057829003601f168201915b50505050509050600061160e611948565b9050600081511415611624578192505050611667565b6000825111156116595780826040516020016116419291906129cd565b60405160208183030381529060405292505050611667565b6116628461195f565b925050505b919050565b60007f80ac58cd000000000000000000000000000000000000000000000000000000007bffffffffffffffffffffffffffffffffffffffffffffffffffffffff1916827bffffffffffffffffffffffffffffffffffffffffffffffffffffffff1916148061173757507f5b5e139f000000000000000000000000000000000000000000000000000000007bffffffffffffffffffffffffffffffffffffffffffffffffffffffff1916827bffffffffffffffffffffffffffffffffffffffffffffffffffffffff1916145b80611747575061174682611a06565b5b9050919050565b61175781611a70565b600060066000838152602001908152602001600020805461177790612f4b565b90501461179e5760066000828152602001908152602001600020600061179d9190612258565b5b50565b6117ac838383611b81565b505050565b60006117d28473ffffffffffffffffffffffffffffffffffffffff16611c95565b1561193b578373ffffffffffffffffffffffffffffffffffffffff1663150b7a026117fb610ce4565b8786866040518563ffffffff1660e01b815260040161181d9493929190612a0c565b602060405180830381600087803b15801561183757600080fd5b505af192505050801561186857506040513d601f19601f820116820180604052508101906118659190612612565b60015b6118eb573d8060008114611898576040519150601f19603f3d011682016040523d82523d6000602084013e61189d565b606091505b506000815114156118e3576040517f08c379a00000000000000000000000000000000000000000000000000000000081526004016118da90612ab5565b60405180910390fd5b805181602001fd5b63150b7a0260e01b7bffffffffffffffffffffffffffffffffffffffffffffffffffffffff1916817bffffffffffffffffffffffffffffffffffffffffffffffffffffffff191614915050611940565b600190505b949350505050565b606060405180602001604052806000815250905090565b606061196a82610c78565b6119a9576040517f08c379a00000000000000000000000000000000000000000000000000000000081526004016119a090612c55565b60405180910390fd5b60006119b3611948565b905060008151116119d357604051806020016040528060008152506119fe565b806119dd84611ca8565b6040516020016119ee9291906129cd565b6040516020818303038152906040525b915050919050565b60007f01ffc9a7000000000000000000000000000000000000000000000000000000007bffffffffffffffffffffffffffffffffffffffffffffffffffffffff1916827bffffffffffffffffffffffffffffffffffffffffffffffffffffffff1916149050919050565b6000611a7b82610854565b9050611a89816000846117a1565b611a94600083610cec565b6001600360008373ffffffffffffffffffffffffffffffffffffffff1673ffffffffffffffffffffffffffffffffffffffff1681526020019081526020016000206000828254611ae49190612e61565b925050819055506002600083815260200190815260200160002060006101000a81549073ffffffffffffffffffffffffffffffffffffffff021916905581600073ffffffffffffffffffffffffffffffffffffffff168273ffffffffffffffffffffffffffffffffffffffff167fddf252ad1be2c89b69c2b068fc378daa952ba7f163c4a11628f55a4df523b3ef60405160405180910390a45050565b611b8c838383611e55565b600073ffffffffffffffffffffffffffffffffffffffff168373ffffffffffffffffffffffffffffffffffffffff161415611bcf57611bca81611e5a565b611c0e565b8173ffffffffffffffffffffffffffffffffffffffff168373ffffffffffffffffffffffffffffffffffffffff1614611c0d57611c0c8382611ea3565b5b5b600073ffffffffffffffffffffffffffffffffffffffff168273ffffffffffffffffffffffffffffffffffffffff161415611c5157611c4c81612010565b611c90565b8273ffffffffffffffffffffffffffffffffffffffff168273ffffffffffffffffffffffffffffffffffffffff1614611c8f57611c8e8282612153565b5b5b505050565b600080823b905060008111915050919050565b60606000821415611cf0576040518060400160405280600181526020017f30000000000000000000000000000000000000000000000000000000000000008152509050611e50565b600082905060005b60008214611d22578080611d0b90612fae565b915050600a82611d1b9190612e30565b9150611cf8565b60008167ffffffffffffffff811115611d64577f4e487b7100000000000000000000000000000000000000000000000000000000600052604160045260246000fd5b6040519080825280601f01601f191660200182016040528015611d965781602001600182028036833780820191505090505b5090505b60008514611e4957600182611daf9190612e61565b9150600a85611dbe9190612ff7565b6030611dca9190612dda565b60f81b818381518110611e06577f4e487b7100000000000000000000000000000000000000000000000000000000600052603260045260246000fd5b60200101907effffffffffffffffffffffffffffffffffffffffffffffffffffffffffffff1916908160001a905350600a85611e429190612e30565b9450611d9a565b8093505050505b919050565b505050565b600980549050600a600083815260200190815260200160002081905550600981908060018154018082558091505060019003906000526020600020016000909190919091505550565b60006001611eb084610906565b611eba9190612e61565b9050600060086000848152602001908152602001600020549050818114611f9f576000600760008673ffffffffffffffffffffffffffffffffffffffff1673ffffffffffffffffffffffffffffffffffffffff168152602001908152602001600020600084815260200190815260200160002054905080600760008773ffffffffffffffffffffffffffffffffffffffff1673ffffffffffffffffffffffffffffffffffffffff168152602001908152602001600020600084815260200190815260200160002081905550816008600083815260200190815260200160002081905550505b6008600084815260200190815260200160002060009055600760008573ffffffffffffffffffffffffffffffffffffffff1673ffffffffffffffffffffffffffffffffffffffff16815260200190815260200160002060008381526020019081526020016000206000905550505050565b600060016009805490506120249190612e61565b90506000600a600084815260200190815260200160002054905060006009838154811061207a577f4e487b7100000000000000000000000000000000000000000000000000000000600052603260045260246000fd5b9060005260206000200154905080600983815481106120c2577f4e487b7100000000000000000000000000000000000000000000000000000000600052603260045260246000fd5b906000526020600020018190555081600a600083815260200190815260200160002081905550600a6000858152602001908152602001600020600090556009805480612137577f4e487b7100000000000000000000000000000000000000000000000000000000600052603160045260246000fd5b6001900381819060005260206000200160009055905550505050565b600061215e83610906565b905081600760008573ffffffffffffffffffffffffffffffffffffffff1673ffffffffffffffffffffffffffffffffffffffff168152602001908152602001600020600083815260200190815260200160002081905550806008600084815260200190815260200160002081905550505050565b8280546121de90612f4b565b90600052602060002090601f0160209004810192826122005760008555612247565b82601f1061221957805160ff1916838001178555612247565b82800160010185558215612247579182015b8281111561224657825182559160200191906001019061222b565b5b5090506122549190612298565b5090565b50805461226490612f4b565b6000825580601f106122765750612295565b601f0160209004906000526020600020908101906122949190612298565b5b50565b5b808211156122b1576000816000905550600101612299565b5090565b60006122c86122c384612d35565b612d10565b9050828152602081018484840111156122e057600080fd5b6122eb848285612f09565b509392505050565b600061230661230184612d66565b612d10565b90508281526020810184848401111561231e57600080fd5b612329848285612f09565b509392505050565b60008135905061234081613660565b92915050565b60008135905061235581613677565b92915050565b60008135905061236a8161368e565b92915050565b60008151905061237f8161368e565b92915050565b600082601f83011261239657600080fd5b81356123a68482602086016122b5565b91505092915050565b600082601f8301126123c057600080fd5b81356123d08482602086016122f3565b91505092915050565b6000813590506123e8816136a5565b92915050565b60006020828403121561240057600080fd5b600061240e84828501612331565b91505092915050565b6000806040838503121561242a57600080fd5b600061243885828601612331565b925050602061244985828601612331565b9150509250929050565b60008060006060848603121561246857600080fd5b600061247686828701612331565b935050602061248786828701612331565b9250506040612498868287016123d9565b9150509250925092565b600080600080608085870312156124b857600080fd5b60006124c687828801612331565b94505060206124d787828801612331565b93505060406124e8878288016123d9565b925050606085013567ffffffffffffffff81111561250557600080fd5b61251187828801612385565b91505092959194509250565b6000806040838503121561253057600080fd5b600061253e85828601612331565b925050602061254f85828601612346565b9150509250929050565b6000806040838503121561256c57600080fd5b600061257a85828601612331565b925050602083013567ffffffffffffffff81111561259757600080fd5b6125a3858286016123af565b9150509250929050565b600080604083850312156125c057600080fd5b60006125ce85828601612331565b92505060206125df858286016123d9565b9150509250929050565b6000602082840312156125fb57600080fd5b60006126098482850161235b565b91505092915050565b60006020828403121561262457600080fd5b600061263284828501612370565b91505092915050565b60006020828403121561264d57600080fd5b600061265b848285016123d9565b91505092915050565b61266d81612e95565b82525050565b61267c81612ea7565b82525050565b600061268d82612d97565b6126978185612dad565b93506126a7818560208601612f18565b6126b0816130e4565b840191505092915050565b60006126c682612da2565b6126d08185612dbe565b93506126e0818560208601612f18565b6126e9816130e4565b840191505092915050565b60006126ff82612da2565b6127098185612dcf565b9350612719818560208601612f18565b80840191505092915050565b6000612732602b83612dbe565b915061273d826130f5565b604082019050919050565b6000612755603283612dbe565b915061276082613144565b604082019050919050565b6000612778601c83612dbe565b915061278382613193565b602082019050919050565b600061279b602483612dbe565b91506127a6826131bc565b604082019050919050565b60006127be601983612dbe565b91506127c98261320b565b602082019050919050565b60006127e1602c83612dbe565b91506127ec82613234565b604082019050919050565b6000612804603883612dbe565b915061280f82613283565b604082019050919050565b6000612827602a83612dbe565b9150612832826132d2565b604082019050919050565b600061284a602983612dbe565b915061285582613321565b604082019050919050565b600061286d602e83612dbe565b915061287882613370565b604082019050919050565b6000612890602083612dbe565b915061289b826133bf565b602082019050919050565b60006128b3603183612dbe565b91506128be826133e8565b604082019050919050565b60006128d6602c83612dbe565b91506128e182613437565b604082019050919050565b60006128f9602983612dbe565b915061290482613486565b604082019050919050565b600061291c602f83612dbe565b9150612927826134d5565b604082019050919050565b600061293f602183612dbe565b915061294a82613524565b604082019050919050565b6000612962603183612dbe565b915061296d82613573565b604082019050919050565b6000612985602c83612dbe565b9150612990826135c2565b604082019050919050565b60006129a8602883612dbe565b91506129b382613611565b604082019050919050565b6129c781612eff565b82525050565b60006129d982856126f4565b91506129e582846126f4565b91508190509392505050565b6000602082019050612a066000830184612664565b92915050565b6000608082019050612a216000830187612664565b612a2e6020830186612664565b612a3b60408301856129be565b8181036060830152612a4d8184612682565b905095945050505050565b6000602082019050612a6d6000830184612673565b92915050565b60006020820190508181036000830152612a8d81846126bb565b905092915050565b60006020820190508181036000830152612aae81612725565b9050919050565b60006020820190508181036000830152612ace81612748565b9050919050565b60006020820190508181036000830152612aee8161276b565b9050919050565b60006020820190508181036000830152612b0e8161278e565b9050919050565b60006020820190508181036000830152612b2e816127b1565b9050919050565b60006020820190508181036000830152612b4e816127d4565b9050919050565b60006020820190508181036000830152612b6e816127f7565b9050919050565b60006020820190508181036000830152612b8e8161281a565b9050919050565b60006020820190508181036000830152612bae8161283d565b9050919050565b60006020820190508181036000830152612bce81612860565b9050919050565b60006020820190508181036000830152612bee81612883565b9050919050565b60006020820190508181036000830152612c0e816128a6565b9050919050565b60006020820190508181036000830152612c2e816128c9565b9050919050565b60006020820190508181036000830152612c4e816128ec565b9050919050565b60006020820190508181036000830152612c6e8161290f565b9050919050565b60006020820190508181036000830152612c8e81612932565b9050919050565b60006020820190508181036000830152612cae81612955565b9050919050565b60006020820190508181036000830152612cce81612978565b9050919050565b60006020820190508181036000830152612cee8161299b565b9050919050565b6000602082019050612d0a60008301846129be565b92915050565b6000612d1a612d2b565b9050612d268282612f7d565b919050565b6000604051905090565b600067ffffffffffffffff821115612d5057612d4f6130b5565b5b612d59826130e4565b9050602081019050919050565b600067ffffffffffffffff821115612d8157612d806130b5565b5b612d8a826130e4565b9050602081019050919050565b600081519050919050565b600081519050919050565b600082825260208201905092915050565b600082825260208201905092915050565b600081905092915050565b6000612de582612eff565b9150612df083612eff565b9250827fffffffffffffffffffffffffffffffffffffffffffffffffffffffffffffffff03821115612e2557612e24613028565b5b828201905092915050565b6000612e3b82612eff565b9150612e4683612eff565b925082612e5657612e55613057565b5b828204905092915050565b6000612e6c82612eff565b9150612e7783612eff565b925082821015612e8a57612e89613028565b5b828203905092915050565b6000612ea082612edf565b9050919050565b60008115159050919050565b60007fffffffff0000000000000000000000000000000000000000000000000000000082169050919050565b600073ffffffffffffffffffffffffffffffffffffffff82169050919050565b6000819050919050565b82818337600083830152505050565b60005b83811015612f36578082015181840152602081019050612f1b565b83811115612f45576000848401525b50505050565b60006002820490506001821680612f6357607f821691505b60208210811415612f7757612f76613086565b5b50919050565b612f86826130e4565b810181811067ffffffffffffffff82111715612fa557612fa46130b5565b5b80604052505050565b6000612fb982612eff565b91507fffffffffffffffffffffffffffffffffffffffffffffffffffffffffffffffff821415612fec57612feb613028565b5b600182019050919050565b600061300282612eff565b915061300d83612eff565b92508261301d5761301c613057565b5b828206905092915050565b7f4e487b7100000000000000000000000000000000000000000000000000000000600052601160045260246000fd5b7f4e487b7100000000000000000000000000000000000000000000000000000000600052601260045260246000fd5b7f4e487b7100000000000000000000000000000000000000000000000000000000600052602260045260246000fd5b7f4e487b7100000000000000000000000000000000000000000000000000000000600052604160045260246000fd5b6000601f19601f8301169050919050565b7f455243373231456e756d657261626c653a206f776e657220696e646578206f7560008201527f74206f6620626f756e6473000000000000000000000000000000000000000000602082015250565b7f4552433732313a207472616e7366657220746f206e6f6e20455243373231526560008201527f63656976657220696d706c656d656e7465720000000000000000000000000000602082015250565b7f4552433732313a20746f6b656e20616c7265616479206d696e74656400000000600082015250565b7f4552433732313a207472616e7366657220746f20746865207a65726f2061646460008201527f7265737300000000000000000000000000000000000000000000000000000000602082015250565b7f4552433732313a20617070726f766520746f2063616c6c657200000000000000600082015250565b7f4552433732313a206f70657261746f7220717565727920666f72206e6f6e657860008201527f697374656e7420746f6b656e0000000000000000000000000000000000000000602082015250565b7f4552433732313a20617070726f76652063616c6c6572206973206e6f74206f7760008201527f6e6572206e6f7220617070726f76656420666f7220616c6c0000000000000000602082015250565b7f4552433732313a2062616c616e636520717565727920666f7220746865207a6560008201527f726f206164647265737300000000000000000000000000000000000000000000602082015250565b7f4552433732313a206f776e657220717565727920666f72206e6f6e657869737460008201527f656e7420746f6b656e0000000000000000000000000000000000000000000000602082015250565b7f45524337323155524953746f726167653a2055524920736574206f66206e6f6e60008201527f6578697374656e7420746f6b656e000000000000000000000000000000000000602082015250565b7f4552433732313a206d696e7420746f20746865207a65726f2061646472657373600082015250565b7f45524337323155524953746f726167653a2055524920717565727920666f722060008201527f6e6f6e6578697374656e7420746f6b656e000000000000000000000000000000602082015250565b7f4552433732313a20617070726f76656420717565727920666f72206e6f6e657860008201527f697374656e7420746f6b656e0000000000000000000000000000000000000000602082015250565b7f4552433732313a207472616e73666572206f6620746f6b656e2074686174206960008201527f73206e6f74206f776e0000000000000000000000000000000000000000000000602082015250565b7f4552433732314d657461646174613a2055524920717565727920666f72206e6f60008201527f6e6578697374656e7420746f6b656e0000000000000000000000000000000000602082015250565b7f4552433732313a20617070726f76616c20746f2063757272656e74206f776e6560008201527f7200000000000000000000000000000000000000000000000000000000000000602082015250565b7f4552433732313a207472616e736665722063616c6c6572206973206e6f74206f60008201527f776e6572206e6f7220617070726f766564000000000000000000000000000000602082015250565b7f455243373231456e756d657261626c653a20676c6f62616c20696e646578206f60008201527f7574206f6620626f756e64730000000000000000000000000000000000000000602082015250565b7f43616c6c6572206973206e6f74206f776e6572206f662074686973204d6f6d6d60008201527f6f6d20746f6b656e000000000000000000000000000000000000000000000000602082015250565b61366981612e95565b811461367457600080fd5b50565b61368081612ea7565b811461368b57600080fd5b50565b61369781612eb3565b81146136a257600080fd5b50565b6136ae81612eff565b81146136b957600080fd5b5056fea26469706673582212200332b6a5d04e93a48fb445de34fb5c04838e84737f00d1cb5596bfa4af09a5a264736f6c63430008040033",
  "linkReferences": {},
  "deployedLinkReferences": {}
}