{
  "_format": "hh-sol-artifact-1",
  "contractName": "Reward",
  "sourceName": "contracts/Reward.sol",
  "abi": [
    {
      "inputs": [
        {
          "internalType": "string",
          "name": "_name",
          "type": "string"
        },
        {
          "internalType": "string",
          "name": "_symbol",
          "type": "string"
        }
      ],
      "stateMutability": "nonpayable",
      "type": "constructor"
    },
    {
      "anonymous": false,
      "inputs": [
        {
          "indexed": true,
          "internalType": "address",
          "name": "owner",
          "type": "address"
        },
        {
          "indexed": true,
          "internalType": "address",
          "name": "approved",
          "type": "address"
        },
        {
          "indexed": true,
          "internalType": "uint256",
          "name": "tokenId",
          "type": "uint256"
        }
      ],
      "name": "Approval",
      "type": "event"
    },
    {
      "anonymous": false,
      "inputs": [
        {
          "indexed": true,
          "internalType": "address",
          "name": "owner",
          "type": "address"
        },
        {
          "indexed": true,
          "internalType": "address",
          "name": "operator",
          "type": "address"
        },
        {
          "indexed": false,
          "internalType": "bool",
          "name": "approved",
          "type": "bool"
        }
      ],
      "name": "ApprovalForAll",
      "type": "event"
    },
    {
      "anonymous": false,
      "inputs": [
        {
          "indexed": true,
          "internalType": "address",
          "name": "from",
          "type": "address"
        },
        {
          "indexed": true,
          "internalType": "address",
          "name": "to",
          "type": "address"
        },
        {
          "indexed": true,
          "internalType": "uint256",
          "name": "tokenId",
          "type": "uint256"
        }
      ],
      "name": "Transfer",
      "type": "event"
    },
    {
      "inputs": [
        {
          "internalType": "address",
          "name": "to",
          "type": "address"
        },
        {
          "internalType": "uint256",
          "name": "tokenId",
          "type": "uint256"
        }
      ],
      "name": "approve",
      "outputs": [],
      "stateMutability": "nonpayable",
      "type": "function"
    },
    {
      "inputs": [
        {
          "internalType": "address",
          "name": "owner",
          "type": "address"
        }
      ],
      "name": "balanceOf",
      "outputs": [
        {
          "internalType": "uint256",
          "name": "",
          "type": "uint256"
        }
      ],
      "stateMutability": "view",
      "type": "function"
    },
    {
      "inputs": [
        {
          "internalType": "uint256",
          "name": "tokenId",
          "type": "uint256"
        }
      ],
      "name": "getApproved",
      "outputs": [
        {
          "internalType": "address",
          "name": "",
          "type": "address"
        }
      ],
      "stateMutability": "view",
      "type": "function"
    },
    {
      "inputs": [
        {
          "internalType": "address",
          "name": "owner",
          "type": "address"
        },
        {
          "internalType": "address",
          "name": "operator",
          "type": "address"
        }
      ],
      "name": "isApprovedForAll",
      "outputs": [
        {
          "internalType": "bool",
          "name": "",
          "type": "bool"
        }
      ],
      "stateMutability": "view",
      "type": "function"
    },
    {
      "inputs": [],
      "name": "name",
      "outputs": [
        {
          "internalType": "string",
          "name": "",
          "type": "string"
        }
      ],
      "stateMutability": "view",
      "type": "function"
    },
    {
      "inputs": [
        {
          "internalType": "uint256",
          "name": "tokenId",
          "type": "uint256"
        }
      ],
      "name": "ownerOf",
      "outputs": [
        {
          "internalType": "address",
          "name": "",
          "type": "address"
        }
      ],
      "stateMutability": "view",
      "type": "function"
    },
    {
      "inputs": [
        {
          "internalType": "address",
          "name": "owner",
          "type": "address"
        }
      ],
      "name": "rewarded",
      "outputs": [
        {
          "internalType": "uint256",
          "name": "",
          "type": "uint256"
        }
      ],
      "stateMutability": "nonpayable",
      "type": "function"
    },
    {
      "inputs": [
        {
          "internalType": "address",
          "name": "from",
          "type": "address"
        },
        {
          "internalType": "address",
          "name": "to",
          "type": "address"
        },
        {
          "internalType": "uint256",
          "name": "tokenId",
          "type": "uint256"
        }
      ],
      "name": "safeTransferFrom",
      "outputs": [],
      "stateMutability": "nonpayable",
      "type": "function"
    },
    {
      "inputs": [
        {
          "internalType": "address",
          "name": "from",
          "type": "address"
        },
        {
          "internalType": "address",
          "name": "to",
          "type": "address"
        },
        {
          "internalType": "uint256",
          "name": "tokenId",
          "type": "uint256"
        },
        {
          "internalType": "bytes",
          "name": "_data",
          "type": "bytes"
        }
      ],
      "name": "safeTransferFrom",
      "outputs": [],
      "stateMutability": "nonpayable",
      "type": "function"
    },
    {
      "inputs": [
        {
          "internalType": "address",
          "name": "operator",
          "type": "address"
        },
        {
          "internalType": "bool",
          "name": "approved",
          "type": "bool"
        }
      ],
      "name": "setApprovalForAll",
      "outputs": [],
      "stateMutability": "nonpayable",
      "type": "function"
    },
    {
      "inputs": [
        {
          "internalType": "bytes4",
          "name": "interfaceId",
          "type": "bytes4"
        }
      ],
      "name": "supportsInterface",
      "outputs": [
        {
          "internalType": "bool",
          "name": "",
          "type": "bool"
        }
      ],
      "stateMutability": "view",
      "type": "function"
    },
    {
      "inputs": [],
      "name": "symbol",
      "outputs": [
        {
          "internalType": "string",
          "name": "",
          "type": "string"
        }
      ],
      "stateMutability": "view",
      "type": "function"
    },
    {
      "inputs": [
        {
          "internalType": "uint256",
          "name": "tokenId",
          "type": "uint256"
        }
      ],
      "name": "tokenURI",
      "outputs": [
        {
          "internalType": "string",
          "name": "",
          "type": "string"
        }
      ],
      "stateMutability": "view",
      "type": "function"
    },
    {
      "inputs": [
        {
          "internalType": "address",
          "name": "from",
          "type": "address"
        },
        {
          "internalType": "address",
          "name": "to",
          "type": "address"
        },
        {
          "internalType": "uint256",
          "name": "tokenId",
          "type": "uint256"
        }
      ],
      "name": "transferFrom",
      "outputs": [],
      "stateMutability": "nonpayable",
      "type": "function"
    }
  ],
  "bytecode": "0x60806040523480156200001157600080fd5b5060405162002a3838038062002a38833981810160405281019062000037919062000197565b818181600090805190602001906200005192919062000075565b5080600190805190602001906200006a92919062000075565b50505050506200037a565b82805462000083906200029f565b90600052602060002090601f016020900481019282620000a75760008555620000f3565b82601f10620000c257805160ff1916838001178555620000f3565b82800160010185558215620000f3579182015b82811115620000f2578251825591602001919060010190620000d5565b5b50905062000102919062000106565b5090565b5b808211156200012157600081600090555060010162000107565b5090565b60006200013c620001368462000233565b6200020a565b9050828152602081018484840111156200015557600080fd5b6200016284828562000269565b509392505050565b600082601f8301126200017c57600080fd5b81516200018e84826020860162000125565b91505092915050565b60008060408385031215620001ab57600080fd5b600083015167ffffffffffffffff811115620001c657600080fd5b620001d4858286016200016a565b925050602083015167ffffffffffffffff811115620001f257600080fd5b62000200858286016200016a565b9150509250929050565b60006200021662000229565b9050620002248282620002d5565b919050565b6000604051905090565b600067ffffffffffffffff8211156200025157620002506200033a565b5b6200025c8262000369565b9050602081019050919050565b60005b83811015620002895780820151818401526020810190506200026c565b8381111562000299576000848401525b50505050565b60006002820490506001821680620002b857607f821691505b60208210811415620002cf57620002ce6200030b565b5b50919050565b620002e08262000369565b810181811067ffffffffffffffff821117156200030257620003016200033a565b5b80604052505050565b7f4e487b7100000000000000000000000000000000000000000000000000000000600052602260045260246000fd5b7f4e487b7100000000000000000000000000000000000000000000000000000000600052604160045260246000fd5b6000601f19601f8301169050919050565b6126ae806200038a6000396000f3fe608060405234801561001057600080fd5b50600436106100ea5760003560e01c80636352211e1161008c578063a22cb46511610066578063a22cb4651461026f578063b88d4fde1461028b578063c87b56dd146102a7578063e985e9c5146102d7576100ea565b80636352211e146101f157806370a082311461022157806395d89b4114610251576100ea565b8063095ea7b3116100c8578063095ea7b31461016d57806323b872dd14610189578063379f53e3146101a557806342842e0e146101d5576100ea565b806301ffc9a7146100ef57806306fdde031461011f578063081812fc1461013d575b600080fd5b610109600480360381019061010491906118b0565b610307565b6040516101169190611c70565b60405180910390f35b6101276103e9565b6040516101349190611c8b565b60405180910390f35b61015760048036038101906101529190611902565b61047b565b6040516101649190611c09565b60405180910390f35b61018760048036038101906101829190611874565b610500565b005b6101a3600480360381019061019e919061176e565b610618565b005b6101bf60048036038101906101ba9190611709565b610678565b6040516101cc9190611e6d565b60405180910390f35b6101ef60048036038101906101ea919061176e565b61068e565b005b61020b60048036038101906102069190611902565b6106ae565b6040516102189190611c09565b60405180910390f35b61023b60048036038101906102369190611709565b610760565b6040516102489190611e6d565b60405180910390f35b610259610818565b6040516102669190611c8b565b60405180910390f35b61028960048036038101906102849190611838565b6108aa565b005b6102a560048036038101906102a091906117bd565b6108c0565b005b6102c160048036038101906102bc9190611902565b610922565b6040516102ce9190611c8b565b60405180910390f35b6102f160048036038101906102ec9190611732565b6109c9565b6040516102fe9190611c70565b60405180910390f35b60007f80ac58cd000000000000000000000000000000000000000000000000000000007bffffffffffffffffffffffffffffffffffffffffffffffffffffffff1916827bffffffffffffffffffffffffffffffffffffffffffffffffffffffff191614806103d257507f5b5e139f000000000000000000000000000000000000000000000000000000007bffffffffffffffffffffffffffffffffffffffffffffffffffffffff1916827bffffffffffffffffffffffffffffffffffffffffffffffffffffffff1916145b806103e257506103e182610a5d565b5b9050919050565b6060600080546103f890612092565b80601f016020809104026020016040519081016040528092919081815260200182805461042490612092565b80156104715780601f1061044657610100808354040283529160200191610471565b820191906000526020600020905b81548152906001019060200180831161045457829003601f168201915b5050505050905090565b600061048682610ac7565b6104c5576040517f08c379a00000000000000000000000000000000000000000000000000000000081526004016104bc90611dcd565b60405180910390fd5b6004600083815260200190815260200160002060009054906101000a900473ffffffffffffffffffffffffffffffffffffffff169050919050565b600061050b826106ae565b90508073ffffffffffffffffffffffffffffffffffffffff168373ffffffffffffffffffffffffffffffffffffffff16141561057c576040517f08c379a000000000000000000000000000000000000000000000000000000000815260040161057390611e2d565b60405180910390fd5b8073ffffffffffffffffffffffffffffffffffffffff1661059b610b33565b73ffffffffffffffffffffffffffffffffffffffff1614806105ca57506105c9816105c4610b33565b6109c9565b5b610609576040517f08c379a000000000000000000000000000000000000000000000000000000000815260040161060090611d4d565b60405180910390fd5b6106138383610b3b565b505050565b610629610623610b33565b82610bf4565b610668576040517f08c379a000000000000000000000000000000000000000000000000000000000815260040161065f90611e4d565b60405180910390fd5b610673838383610cd2565b505050565b6000610685826001610f2e565b60019050919050565b6106a9838383604051806020016040528060008152506108c0565b505050565b6000806002600084815260200190815260200160002060009054906101000a900473ffffffffffffffffffffffffffffffffffffffff169050600073ffffffffffffffffffffffffffffffffffffffff168173ffffffffffffffffffffffffffffffffffffffff161415610757576040517f08c379a000000000000000000000000000000000000000000000000000000000815260040161074e90611d8d565b60405180910390fd5b80915050919050565b60008073ffffffffffffffffffffffffffffffffffffffff168273ffffffffffffffffffffffffffffffffffffffff1614156107d1576040517f08c379a00000000000000000000000000000000000000000000000000000000081526004016107c890611d6d565b60405180910390fd5b600360008373ffffffffffffffffffffffffffffffffffffffff1673ffffffffffffffffffffffffffffffffffffffff168152602001908152602001600020549050919050565b60606001805461082790612092565b80601f016020809104026020016040519081016040528092919081815260200182805461085390612092565b80156108a05780601f10610875576101008083540402835291602001916108a0565b820191906000526020600020905b81548152906001019060200180831161088357829003601f168201915b5050505050905090565b6108bc6108b5610b33565b83836110fc565b5050565b6108d16108cb610b33565b83610bf4565b610910576040517f08c379a000000000000000000000000000000000000000000000000000000000815260040161090790611e4d565b60405180910390fd5b61091c84848484611269565b50505050565b606061092d82610ac7565b61096c576040517f08c379a000000000000000000000000000000000000000000000000000000000815260040161096390611e0d565b60405180910390fd5b60006109766112c5565b9050600081511161099657604051806020016040528060008152506109c1565b806109a0846112dc565b6040516020016109b1929190611be5565b6040516020818303038152906040525b915050919050565b6000600560008473ffffffffffffffffffffffffffffffffffffffff1673ffffffffffffffffffffffffffffffffffffffff16815260200190815260200160002060008373ffffffffffffffffffffffffffffffffffffffff1673ffffffffffffffffffffffffffffffffffffffff16815260200190815260200160002060009054906101000a900460ff16905092915050565b60007f01ffc9a7000000000000000000000000000000000000000000000000000000007bffffffffffffffffffffffffffffffffffffffffffffffffffffffff1916827bffffffffffffffffffffffffffffffffffffffffffffffffffffffff1916149050919050565b60008073ffffffffffffffffffffffffffffffffffffffff166002600084815260200190815260200160002060009054906101000a900473ffffffffffffffffffffffffffffffffffffffff1673ffffffffffffffffffffffffffffffffffffffff1614159050919050565b600033905090565b816004600083815260200190815260200160002060006101000a81548173ffffffffffffffffffffffffffffffffffffffff021916908373ffffffffffffffffffffffffffffffffffffffff160217905550808273ffffffffffffffffffffffffffffffffffffffff16610bae836106ae565b73ffffffffffffffffffffffffffffffffffffffff167f8c5be1e5ebec7d5bd14f71427d1e84f3dd0314c0f7b2291e5b200ac8c7c3b92560405160405180910390a45050565b6000610bff82610ac7565b610c3e576040517f08c379a0000000000000000000000000000000000000000000000000000000008152600401610c3590611d2d565b60405180910390fd5b6000610c49836106ae565b90508073ffffffffffffffffffffffffffffffffffffffff168473ffffffffffffffffffffffffffffffffffffffff161480610cb857508373ffffffffffffffffffffffffffffffffffffffff16610ca08461047b565b73ffffffffffffffffffffffffffffffffffffffff16145b80610cc95750610cc881856109c9565b5b91505092915050565b8273ffffffffffffffffffffffffffffffffffffffff16610cf2826106ae565b73ffffffffffffffffffffffffffffffffffffffff1614610d48576040517f08c379a0000000000000000000000000000000000000000000000000000000008152600401610d3f90611ded565b60405180910390fd5b600073ffffffffffffffffffffffffffffffffffffffff168273ffffffffffffffffffffffffffffffffffffffff161415610db8576040517f08c379a0000000000000000000000000000000000000000000000000000000008152600401610daf90611ced565b60405180910390fd5b610dc3838383611489565b610dce600082610b3b565b6001600360008573ffffffffffffffffffffffffffffffffffffffff1673ffffffffffffffffffffffffffffffffffffffff1681526020019081526020016000206000828254610e1e9190611fa8565b925050819055506001600360008473ffffffffffffffffffffffffffffffffffffffff1673ffffffffffffffffffffffffffffffffffffffff1681526020019081526020016000206000828254610e759190611f21565b92505081905550816002600083815260200190815260200160002060006101000a81548173ffffffffffffffffffffffffffffffffffffffff021916908373ffffffffffffffffffffffffffffffffffffffff160217905550808273ffffffffffffffffffffffffffffffffffffffff168473ffffffffffffffffffffffffffffffffffffffff167fddf252ad1be2c89b69c2b068fc378daa952ba7f163c4a11628f55a4df523b3ef60405160405180910390a4505050565b600073ffffffffffffffffffffffffffffffffffffffff168273ffffffffffffffffffffffffffffffffffffffff161415610f9e576040517f08c379a0000000000000000000000000000000000000000000000000000000008152600401610f9590611dad565b60405180910390fd5b610fa781610ac7565b15610fe7576040517f08c379a0000000000000000000000000000000000000000000000000000000008152600401610fde90611ccd565b60405180910390fd5b610ff360008383611489565b6001600360008473ffffffffffffffffffffffffffffffffffffffff1673ffffffffffffffffffffffffffffffffffffffff16815260200190815260200160002060008282546110439190611f21565b92505081905550816002600083815260200190815260200160002060006101000a81548173ffffffffffffffffffffffffffffffffffffffff021916908373ffffffffffffffffffffffffffffffffffffffff160217905550808273ffffffffffffffffffffffffffffffffffffffff16600073ffffffffffffffffffffffffffffffffffffffff167fddf252ad1be2c89b69c2b068fc378daa952ba7f163c4a11628f55a4df523b3ef60405160405180910390a45050565b8173ffffffffffffffffffffffffffffffffffffffff168373ffffffffffffffffffffffffffffffffffffffff16141561116b576040517f08c379a000000000000000000000000000000000000000000000000000000000815260040161116290611d0d565b60405180910390fd5b80600560008573ffffffffffffffffffffffffffffffffffffffff1673ffffffffffffffffffffffffffffffffffffffff16815260200190815260200160002060008473ffffffffffffffffffffffffffffffffffffffff1673ffffffffffffffffffffffffffffffffffffffff16815260200190815260200160002060006101000a81548160ff0219169083151502179055508173ffffffffffffffffffffffffffffffffffffffff168373ffffffffffffffffffffffffffffffffffffffff167f17307eab39ab6107e8899845ad3d59bd9653f200f220920489ca2b5937696c318360405161125c9190611c70565b60405180910390a3505050565b611274848484610cd2565b6112808484848461148e565b6112bf576040517f08c379a00000000000000000000000000000000000000000000000000000000081526004016112b690611cad565b60405180910390fd5b50505050565b606060405180602001604052806000815250905090565b60606000821415611324576040518060400160405280600181526020017f30000000000000000000000000000000000000000000000000000000000000008152509050611484565b600082905060005b6000821461135657808061133f906120f5565b915050600a8261134f9190611f77565b915061132c565b60008167ffffffffffffffff811115611398577f4e487b7100000000000000000000000000000000000000000000000000000000600052604160045260246000fd5b6040519080825280601f01601f1916602001820160405280156113ca5781602001600182028036833780820191505090505b5090505b6000851461147d576001826113e39190611fa8565b9150600a856113f2919061213e565b60306113fe9190611f21565b60f81b81838151811061143a577f4e487b7100000000000000000000000000000000000000000000000000000000600052603260045260246000fd5b60200101907effffffffffffffffffffffffffffffffffffffffffffffffffffffffffffff1916908160001a905350600a856114769190611f77565b94506113ce565b8093505050505b919050565b505050565b60006114af8473ffffffffffffffffffffffffffffffffffffffff16611625565b15611618578373ffffffffffffffffffffffffffffffffffffffff1663150b7a026114d8610b33565b8786866040518563ffffffff1660e01b81526004016114fa9493929190611c24565b602060405180830381600087803b15801561151457600080fd5b505af192505050801561154557506040513d601f19601f8201168201806040525081019061154291906118d9565b60015b6115c8573d8060008114611575576040519150601f19603f3d011682016040523d82523d6000602084013e61157a565b606091505b506000815114156115c0576040517f08c379a00000000000000000000000000000000000000000000000000000000081526004016115b790611cad565b60405180910390fd5b805181602001fd5b63150b7a0260e01b7bffffffffffffffffffffffffffffffffffffffffffffffffffffffff1916817bffffffffffffffffffffffffffffffffffffffffffffffffffffffff19161491505061161d565b600190505b949350505050565b600080823b905060008111915050919050565b600061164b61164684611ead565b611e88565b90508281526020810184848401111561166357600080fd5b61166e848285612050565b509392505050565b6000813590506116858161261c565b92915050565b60008135905061169a81612633565b92915050565b6000813590506116af8161264a565b92915050565b6000815190506116c48161264a565b92915050565b600082601f8301126116db57600080fd5b81356116eb848260208601611638565b91505092915050565b60008135905061170381612661565b92915050565b60006020828403121561171b57600080fd5b600061172984828501611676565b91505092915050565b6000806040838503121561174557600080fd5b600061175385828601611676565b925050602061176485828601611676565b9150509250929050565b60008060006060848603121561178357600080fd5b600061179186828701611676565b93505060206117a286828701611676565b92505060406117b3868287016116f4565b9150509250925092565b600080600080608085870312156117d357600080fd5b60006117e187828801611676565b94505060206117f287828801611676565b9350506040611803878288016116f4565b925050606085013567ffffffffffffffff81111561182057600080fd5b61182c878288016116ca565b91505092959194509250565b6000806040838503121561184b57600080fd5b600061185985828601611676565b925050602061186a8582860161168b565b9150509250929050565b6000806040838503121561188757600080fd5b600061189585828601611676565b92505060206118a6858286016116f4565b9150509250929050565b6000602082840312156118c257600080fd5b60006118d0848285016116a0565b91505092915050565b6000602082840312156118eb57600080fd5b60006118f9848285016116b5565b91505092915050565b60006020828403121561191457600080fd5b6000611922848285016116f4565b91505092915050565b61193481611fdc565b82525050565b61194381611fee565b82525050565b600061195482611ede565b61195e8185611ef4565b935061196e81856020860161205f565b6119778161222b565b840191505092915050565b600061198d82611ee9565b6119978185611f05565b93506119a781856020860161205f565b6119b08161222b565b840191505092915050565b60006119c682611ee9565b6119d08185611f16565b93506119e081856020860161205f565b80840191505092915050565b60006119f9603283611f05565b9150611a048261223c565b604082019050919050565b6000611a1c601c83611f05565b9150611a278261228b565b602082019050919050565b6000611a3f602483611f05565b9150611a4a826122b4565b604082019050919050565b6000611a62601983611f05565b9150611a6d82612303565b602082019050919050565b6000611a85602c83611f05565b9150611a908261232c565b604082019050919050565b6000611aa8603883611f05565b9150611ab38261237b565b604082019050919050565b6000611acb602a83611f05565b9150611ad6826123ca565b604082019050919050565b6000611aee602983611f05565b9150611af982612419565b604082019050919050565b6000611b11602083611f05565b9150611b1c82612468565b602082019050919050565b6000611b34602c83611f05565b9150611b3f82612491565b604082019050919050565b6000611b57602983611f05565b9150611b62826124e0565b604082019050919050565b6000611b7a602f83611f05565b9150611b858261252f565b604082019050919050565b6000611b9d602183611f05565b9150611ba88261257e565b604082019050919050565b6000611bc0603183611f05565b9150611bcb826125cd565b604082019050919050565b611bdf81612046565b82525050565b6000611bf182856119bb565b9150611bfd82846119bb565b91508190509392505050565b6000602082019050611c1e600083018461192b565b92915050565b6000608082019050611c39600083018761192b565b611c46602083018661192b565b611c536040830185611bd6565b8181036060830152611c658184611949565b905095945050505050565b6000602082019050611c85600083018461193a565b92915050565b60006020820190508181036000830152611ca58184611982565b905092915050565b60006020820190508181036000830152611cc6816119ec565b9050919050565b60006020820190508181036000830152611ce681611a0f565b9050919050565b60006020820190508181036000830152611d0681611a32565b9050919050565b60006020820190508181036000830152611d2681611a55565b9050919050565b60006020820190508181036000830152611d4681611a78565b9050919050565b60006020820190508181036000830152611d6681611a9b565b9050919050565b60006020820190508181036000830152611d8681611abe565b9050919050565b60006020820190508181036000830152611da681611ae1565b9050919050565b60006020820190508181036000830152611dc681611b04565b9050919050565b60006020820190508181036000830152611de681611b27565b9050919050565b60006020820190508181036000830152611e0681611b4a565b9050919050565b60006020820190508181036000830152611e2681611b6d565b9050919050565b60006020820190508181036000830152611e4681611b90565b9050919050565b60006020820190508181036000830152611e6681611bb3565b9050919050565b6000602082019050611e826000830184611bd6565b92915050565b6000611e92611ea3565b9050611e9e82826120c4565b919050565b6000604051905090565b600067ffffffffffffffff821115611ec857611ec76121fc565b5b611ed18261222b565b9050602081019050919050565b600081519050919050565b600081519050919050565b600082825260208201905092915050565b600082825260208201905092915050565b600081905092915050565b6000611f2c82612046565b9150611f3783612046565b9250827fffffffffffffffffffffffffffffffffffffffffffffffffffffffffffffffff03821115611f6c57611f6b61216f565b5b828201905092915050565b6000611f8282612046565b9150611f8d83612046565b925082611f9d57611f9c61219e565b5b828204905092915050565b6000611fb382612046565b9150611fbe83612046565b925082821015611fd157611fd061216f565b5b828203905092915050565b6000611fe782612026565b9050919050565b60008115159050919050565b60007fffffffff0000000000000000000000000000000000000000000000000000000082169050919050565b600073ffffffffffffffffffffffffffffffffffffffff82169050919050565b6000819050919050565b82818337600083830152505050565b60005b8381101561207d578082015181840152602081019050612062565b8381111561208c576000848401525b50505050565b600060028204905060018216806120aa57607f821691505b602082108114156120be576120bd6121cd565b5b50919050565b6120cd8261222b565b810181811067ffffffffffffffff821117156120ec576120eb6121fc565b5b80604052505050565b600061210082612046565b91507fffffffffffffffffffffffffffffffffffffffffffffffffffffffffffffffff8214156121335761213261216f565b5b600182019050919050565b600061214982612046565b915061215483612046565b9250826121645761216361219e565b5b828206905092915050565b7f4e487b7100000000000000000000000000000000000000000000000000000000600052601160045260246000fd5b7f4e487b7100000000000000000000000000000000000000000000000000000000600052601260045260246000fd5b7f4e487b7100000000000000000000000000000000000000000000000000000000600052602260045260246000fd5b7f4e487b7100000000000000000000000000000000000000000000000000000000600052604160045260246000fd5b6000601f19601f8301169050919050565b7f4552433732313a207472616e7366657220746f206e6f6e20455243373231526560008201527f63656976657220696d706c656d656e7465720000000000000000000000000000602082015250565b7f4552433732313a20746f6b656e20616c7265616479206d696e74656400000000600082015250565b7f4552433732313a207472616e7366657220746f20746865207a65726f2061646460008201527f7265737300000000000000000000000000000000000000000000000000000000602082015250565b7f4552433732313a20617070726f766520746f2063616c6c657200000000000000600082015250565b7f4552433732313a206f70657261746f7220717565727920666f72206e6f6e657860008201527f697374656e7420746f6b656e0000000000000000000000000000000000000000602082015250565b7f4552433732313a20617070726f76652063616c6c6572206973206e6f74206f7760008201527f6e6572206e6f7220617070726f76656420666f7220616c6c0000000000000000602082015250565b7f4552433732313a2062616c616e636520717565727920666f7220746865207a6560008201527f726f206164647265737300000000000000000000000000000000000000000000602082015250565b7f4552433732313a206f776e657220717565727920666f72206e6f6e657869737460008201527f656e7420746f6b656e0000000000000000000000000000000000000000000000602082015250565b7f4552433732313a206d696e7420746f20746865207a65726f2061646472657373600082015250565b7f4552433732313a20617070726f76656420717565727920666f72206e6f6e657860008201527f697374656e7420746f6b656e0000000000000000000000000000000000000000602082015250565b7f4552433732313a207472616e73666572206f6620746f6b656e2074686174206960008201527f73206e6f74206f776e0000000000000000000000000000000000000000000000602082015250565b7f4552433732314d657461646174613a2055524920717565727920666f72206e6f60008201527f6e6578697374656e7420746f6b656e0000000000000000000000000000000000602082015250565b7f4552433732313a20617070726f76616c20746f2063757272656e74206f776e6560008201527f7200000000000000000000000000000000000000000000000000000000000000602082015250565b7f4552433732313a207472616e736665722063616c6c6572206973206e6f74206f60008201527f776e6572206e6f7220617070726f766564000000000000000000000000000000602082015250565b61262581611fdc565b811461263057600080fd5b50565b61263c81611fee565b811461264757600080fd5b50565b61265381611ffa565b811461265e57600080fd5b50565b61266a81612046565b811461267557600080fd5b5056fea2646970667358221220e6ce74dfab177c0e4fc40245965194068afe1e9ea3aec2a2c318d070d84bb37a64736f6c63430008040033",
  "linkReferences": {},
  "deployedLinkReferences": {}
}